{
  "contractName": "TheraSeeding",
  "abi": [
    {
      "anonymous": false,
      "inputs": [
        {
          "indexed": true,
          "internalType": "address",
          "name": "owner",
          "type": "address"
        },
        {
          "indexed": true,
          "internalType": "address",
          "name": "spender",
          "type": "address"
        },
        {
          "indexed": false,
          "internalType": "uint256",
          "name": "value",
          "type": "uint256"
        }
      ],
      "name": "Approval",
      "type": "event"
    },
    {
      "anonymous": false,
      "inputs": [
        {
          "indexed": true,
          "internalType": "address",
          "name": "account",
          "type": "address"
        }
      ],
      "name": "MinterAdded",
      "type": "event"
    },
    {
      "anonymous": false,
      "inputs": [
        {
          "indexed": true,
          "internalType": "address",
          "name": "account",
          "type": "address"
        }
      ],
      "name": "MinterRemoved",
      "type": "event"
    },
    {
      "anonymous": false,
      "inputs": [
        {
          "indexed": true,
          "internalType": "address",
          "name": "from",
          "type": "address"
        },
        {
          "indexed": true,
          "internalType": "address",
          "name": "to",
          "type": "address"
        },
        {
          "indexed": false,
          "internalType": "uint256",
          "name": "value",
          "type": "uint256"
        }
      ],
      "name": "Transfer",
      "type": "event"
    },
    {
      "inputs": [
        {
          "internalType": "address",
          "name": "account",
          "type": "address"
        }
      ],
      "name": "addMinter",
      "outputs": [],
      "stateMutability": "nonpayable",
      "type": "function"
    },
    {
      "inputs": [
        {
          "internalType": "address",
          "name": "owner",
          "type": "address"
        },
        {
          "internalType": "address",
          "name": "spender",
          "type": "address"
        }
      ],
      "name": "allowance",
      "outputs": [
        {
          "internalType": "uint256",
          "name": "",
          "type": "uint256"
        }
      ],
      "stateMutability": "view",
      "type": "function"
    },
    {
      "inputs": [
        {
          "internalType": "address",
          "name": "spender",
          "type": "address"
        },
        {
          "internalType": "uint256",
          "name": "value",
          "type": "uint256"
        }
      ],
      "name": "approve",
      "outputs": [
        {
          "internalType": "bool",
          "name": "",
          "type": "bool"
        }
      ],
      "stateMutability": "nonpayable",
      "type": "function"
    },
    {
      "inputs": [
        {
          "internalType": "address",
          "name": "account",
          "type": "address"
        }
      ],
      "name": "balanceOf",
      "outputs": [
        {
          "internalType": "uint256",
          "name": "",
          "type": "uint256"
        }
      ],
      "stateMutability": "view",
      "type": "function"
    },
    {
      "inputs": [
        {
          "internalType": "address",
          "name": "spender",
          "type": "address"
        },
        {
          "internalType": "uint256",
          "name": "subtractedValue",
          "type": "uint256"
        }
      ],
      "name": "decreaseAllowance",
      "outputs": [
        {
          "internalType": "bool",
          "name": "",
          "type": "bool"
        }
      ],
      "stateMutability": "nonpayable",
      "type": "function"
    },
    {
      "inputs": [
        {
          "internalType": "address",
          "name": "spender",
          "type": "address"
        },
        {
          "internalType": "uint256",
          "name": "addedValue",
          "type": "uint256"
        }
      ],
      "name": "increaseAllowance",
      "outputs": [
        {
          "internalType": "bool",
          "name": "",
          "type": "bool"
        }
      ],
      "stateMutability": "nonpayable",
      "type": "function"
    },
    {
      "inputs": [
        {
          "internalType": "address",
          "name": "account",
          "type": "address"
        }
      ],
      "name": "isMinter",
      "outputs": [
        {
          "internalType": "bool",
          "name": "",
          "type": "bool"
        }
      ],
      "stateMutability": "view",
      "type": "function"
    },
    {
      "inputs": [],
      "name": "totalSupply",
      "outputs": [
        {
          "internalType": "uint256",
          "name": "",
          "type": "uint256"
        }
      ],
      "stateMutability": "view",
      "type": "function"
    },
    {
      "inputs": [
        {
          "internalType": "address",
          "name": "recipient",
          "type": "address"
        },
        {
          "internalType": "uint256",
          "name": "amount",
          "type": "uint256"
        }
      ],
      "name": "transfer",
      "outputs": [
        {
          "internalType": "bool",
          "name": "",
          "type": "bool"
        }
      ],
      "stateMutability": "nonpayable",
      "type": "function"
    },
    {
      "inputs": [
        {
          "internalType": "address",
          "name": "sender",
          "type": "address"
        },
        {
          "internalType": "address",
          "name": "recipient",
          "type": "address"
        },
        {
          "internalType": "uint256",
          "name": "amount",
          "type": "uint256"
        }
      ],
      "name": "transferFrom",
      "outputs": [
        {
          "internalType": "bool",
          "name": "",
          "type": "bool"
        }
      ],
      "stateMutability": "nonpayable",
      "type": "function"
    },
    {
      "inputs": [
        {
          "internalType": "address",
          "name": "account",
          "type": "address"
        },
        {
          "internalType": "uint256",
          "name": "amount",
          "type": "uint256"
        }
      ],
      "name": "mint",
      "outputs": [
        {
          "internalType": "bool",
          "name": "",
          "type": "bool"
        }
      ],
      "stateMutability": "nonpayable",
      "type": "function"
    }
  ],
  "bytecode": "0x60806040526100133361001860201b60201c565b610235565b61003081600361007660201b6111bf1790919060201c565b8073ffffffffffffffffffffffffffffffffffffffff167f6ae172837ea30b801fbfcdd4108aa1d5bf8ff775444fd70256b44e6bf3dfc3f660405160405180910390a250565b610086828261015760201b60201c565b156100f9576040517f08c379a000000000000000000000000000000000000000000000000000000000815260040180806020018281038252601f8152602001807f526f6c65733a206163636f756e7420616c72656164792068617320726f6c650081525060200191505060405180910390fd5b60018260000160008373ffffffffffffffffffffffffffffffffffffffff1673ffffffffffffffffffffffffffffffffffffffff16815260200190815260200160002060006101000a81548160ff0219169083151502179055505050565b60008073ffffffffffffffffffffffffffffffffffffffff168273ffffffffffffffffffffffffffffffffffffffff1614156101de576040517f08c379a00000000000000000000000000000000000000000000000000000000081526004018080602001828103825260228152602001806116296022913960400191505060405180910390fd5b8260000160008373ffffffffffffffffffffffffffffffffffffffff1673ffffffffffffffffffffffffffffffffffffffff16815260200190815260200160002060009054906101000a900460ff16905092915050565b6113e5806102446000396000f3fe608060405234801561001057600080fd5b50600436106100a95760003560e01c806370a082311161007157806370a0823114610284578063983b2d56146102dc578063a457c2d714610320578063a9059cbb14610386578063aa271e1a146103ec578063dd62ed3e14610448576100a9565b8063095ea7b3146100ae57806318160ddd1461011457806323b872dd1461013257806339509351146101b857806340c10f191461021e575b600080fd5b6100fa600480360360408110156100c457600080fd5b81019080803573ffffffffffffffffffffffffffffffffffffffff169060200190929190803590602001909291905050506104c0565b604051808215151515815260200191505060405180910390f35b61011c6104d7565b6040518082815260200191505060405180910390f35b61019e6004803603606081101561014857600080fd5b81019080803573ffffffffffffffffffffffffffffffffffffffff169060200190929190803573ffffffffffffffffffffffffffffffffffffffff169060200190929190803590602001909291905050506104e1565b604051808215151515815260200191505060405180910390f35b610204600480360360408110156101ce57600080fd5b81019080803573ffffffffffffffffffffffffffffffffffffffff16906020019092919080359060200190929190505050610592565b604051808215151515815260200191505060405180910390f35b61026a6004803603604081101561023457600080fd5b81019080803573ffffffffffffffffffffffffffffffffffffffff16906020019092919080359060200190929190505050610637565b604051808215151515815260200191505060405180910390f35b6102c66004803603602081101561029a57600080fd5b81019080803573ffffffffffffffffffffffffffffffffffffffff1690602001909291905050506106ab565b6040518082815260200191505060405180910390f35b61031e600480360360208110156102f257600080fd5b81019080803573ffffffffffffffffffffffffffffffffffffffff1690602001909291905050506106f3565b005b61036c6004803603604081101561033657600080fd5b81019080803573ffffffffffffffffffffffffffffffffffffffff1690602001909291908035906020019092919050505061075d565b604051808215151515815260200191505060405180910390f35b6103d26004803603604081101561039c57600080fd5b81019080803573ffffffffffffffffffffffffffffffffffffffff16906020019092919080359060200190929190505050610802565b604051808215151515815260200191505060405180910390f35b61042e6004803603602081101561040257600080fd5b81019080803573ffffffffffffffffffffffffffffffffffffffff169060200190929190505050610819565b604051808215151515815260200191505060405180910390f35b6104aa6004803603604081101561045e57600080fd5b81019080803573ffffffffffffffffffffffffffffffffffffffff169060200190929190803573ffffffffffffffffffffffffffffffffffffffff169060200190929190505050610836565b6040518082815260200191505060405180910390f35b60006104cd3384846108bd565b6001905092915050565b6000600254905090565b60006104ee848484610ab4565b610587843361058285600160008a73ffffffffffffffffffffffffffffffffffffffff1673ffffffffffffffffffffffffffffffffffffffff16815260200190815260200160002060003373ffffffffffffffffffffffffffffffffffffffff1673ffffffffffffffffffffffffffffffffffffffff16815260200190815260200160002054610d5090919063ffffffff16565b6108bd565b600190509392505050565b600061062d338461062885600160003373ffffffffffffffffffffffffffffffffffffffff1673ffffffffffffffffffffffffffffffffffffffff16815260200190815260200160002060008973ffffffffffffffffffffffffffffffffffffffff1673ffffffffffffffffffffffffffffffffffffffff16815260200190815260200160002054610dd990919063ffffffff16565b6108bd565b6001905092915050565b600061064233610819565b610697576040517f08c379a00000000000000000000000000000000000000000000000000000000081526004018080602001828103825260308152602001806112e06030913960400191505060405180910390fd5b6106a18383610e61565b6001905092915050565b60008060008373ffffffffffffffffffffffffffffffffffffffff1673ffffffffffffffffffffffffffffffffffffffff168152602001908152602001600020549050919050565b6106fc33610819565b610751576040517f08c379a00000000000000000000000000000000000000000000000000000000081526004018080602001828103825260308152602001806112e06030913960400191505060405180910390fd5b61075a81611087565b50565b60006107f833846107f385600160003373ffffffffffffffffffffffffffffffffffffffff1673ffffffffffffffffffffffffffffffffffffffff16815260200190815260200160002060008973ffffffffffffffffffffffffffffffffffffffff1673ffffffffffffffffffffffffffffffffffffffff16815260200190815260200160002054610d5090919063ffffffff16565b6108bd565b6001905092915050565b600061080f338484610ab4565b6001905092915050565b600061082f8260036110e190919063ffffffff16565b9050919050565b6000600160008473ffffffffffffffffffffffffffffffffffffffff1673ffffffffffffffffffffffffffffffffffffffff16815260200190815260200160002060008373ffffffffffffffffffffffffffffffffffffffff1673ffffffffffffffffffffffffffffffffffffffff16815260200190815260200160002054905092915050565b600073ffffffffffffffffffffffffffffffffffffffff168373ffffffffffffffffffffffffffffffffffffffff161415610943576040517f08c379a000000000000000000000000000000000000000000000000000000000815260040180806020018281038252602481526020018061138c6024913960400191505060405180910390fd5b600073ffffffffffffffffffffffffffffffffffffffff168273ffffffffffffffffffffffffffffffffffffffff1614156109c9576040517f08c379a00000000000000000000000000000000000000000000000000000000081526004018080602001828103825260228152602001806112be6022913960400191505060405180910390fd5b80600160008573ffffffffffffffffffffffffffffffffffffffff1673ffffffffffffffffffffffffffffffffffffffff16815260200190815260200160002060008473ffffffffffffffffffffffffffffffffffffffff1673ffffffffffffffffffffffffffffffffffffffff168152602001908152602001600020819055508173ffffffffffffffffffffffffffffffffffffffff168373ffffffffffffffffffffffffffffffffffffffff167f8c5be1e5ebec7d5bd14f71427d1e84f3dd0314c0f7b2291e5b200ac8c7c3b925836040518082815260200191505060405180910390a3505050565b600073ffffffffffffffffffffffffffffffffffffffff168373ffffffffffffffffffffffffffffffffffffffff161415610b3a576040517f08c379a00000000000000000000000000000000000000000000000000000000081526004018080602001828103825260258152602001806113676025913960400191505060405180910390fd5b600073ffffffffffffffffffffffffffffffffffffffff168273ffffffffffffffffffffffffffffffffffffffff161415610bc0576040517f08c379a000000000000000000000000000000000000000000000000000000000815260040180806020018281038252602381526020018061129b6023913960400191505060405180910390fd5b610c11816000808673ffffffffffffffffffffffffffffffffffffffff1673ffffffffffffffffffffffffffffffffffffffff16815260200190815260200160002054610d5090919063ffffffff16565b6000808573ffffffffffffffffffffffffffffffffffffffff1673ffffffffffffffffffffffffffffffffffffffff16815260200190815260200160002081905550610ca4816000808573ffffffffffffffffffffffffffffffffffffffff1673ffffffffffffffffffffffffffffffffffffffff16815260200190815260200160002054610dd990919063ffffffff16565b6000808473ffffffffffffffffffffffffffffffffffffffff1673ffffffffffffffffffffffffffffffffffffffff168152602001908152602001600020819055508173ffffffffffffffffffffffffffffffffffffffff168373ffffffffffffffffffffffffffffffffffffffff167fddf252ad1be2c89b69c2b068fc378daa952ba7f163c4a11628f55a4df523b3ef836040518082815260200191505060405180910390a3505050565b600082821115610dc8576040517f08c379a000000000000000000000000000000000000000000000000000000000815260040180806020018281038252601e8152602001807f536166654d6174683a207375627472616374696f6e206f766572666c6f77000081525060200191505060405180910390fd5b600082840390508091505092915050565b600080828401905083811015610e57576040517f08c379a000000000000000000000000000000000000000000000000000000000815260040180806020018281038252601b8152602001807f536166654d6174683a206164646974696f6e206f766572666c6f77000000000081525060200191505060405180910390fd5b8091505092915050565b600073ffffffffffffffffffffffffffffffffffffffff168273ffffffffffffffffffffffffffffffffffffffff161415610f04576040517f08c379a000000000000000000000000000000000000000000000000000000000815260040180806020018281038252601f8152602001807f45524332303a206d696e7420746f20746865207a65726f20616464726573730081525060200191505060405180910390fd5b6012600a0a6298968002610f166104d7565b82011115610f6f576040517f08c379a00000000000000000000000000000000000000000000000000000000081526004018080602001828103825260358152602001806113326035913960400191505060405180910390fd5b610f8481600254610dd990919063ffffffff16565b600281905550610fdb816000808573ffffffffffffffffffffffffffffffffffffffff1673ffffffffffffffffffffffffffffffffffffffff16815260200190815260200160002054610dd990919063ffffffff16565b6000808473ffffffffffffffffffffffffffffffffffffffff1673ffffffffffffffffffffffffffffffffffffffff168152602001908152602001600020819055508173ffffffffffffffffffffffffffffffffffffffff16600073ffffffffffffffffffffffffffffffffffffffff167fddf252ad1be2c89b69c2b068fc378daa952ba7f163c4a11628f55a4df523b3ef836040518082815260200191505060405180910390a35050565b61109b8160036111bf90919063ffffffff16565b8073ffffffffffffffffffffffffffffffffffffffff167f6ae172837ea30b801fbfcdd4108aa1d5bf8ff775444fd70256b44e6bf3dfc3f660405160405180910390a250565b60008073ffffffffffffffffffffffffffffffffffffffff168273ffffffffffffffffffffffffffffffffffffffff161415611168576040517f08c379a00000000000000000000000000000000000000000000000000000000081526004018080602001828103825260228152602001806113106022913960400191505060405180910390fd5b8260000160008373ffffffffffffffffffffffffffffffffffffffff1673ffffffffffffffffffffffffffffffffffffffff16815260200190815260200160002060009054906101000a900460ff16905092915050565b6111c982826110e1565b1561123c576040517f08c379a000000000000000000000000000000000000000000000000000000000815260040180806020018281038252601f8152602001807f526f6c65733a206163636f756e7420616c72656164792068617320726f6c650081525060200191505060405180910390fd5b60018260000160008373ffffffffffffffffffffffffffffffffffffffff1673ffffffffffffffffffffffffffffffffffffffff16815260200190815260200160002060006101000a81548160ff021916908315150217905550505056fe45524332303a207472616e7366657220746f20746865207a65726f206164647265737345524332303a20617070726f766520746f20746865207a65726f20616464726573734d696e746572526f6c653a2063616c6c657220646f6573206e6f74206861766520746865204d696e74657220726f6c65526f6c65733a206163636f756e7420697320746865207a65726f20616464726573734d6178204361703a207265717565737420666f72206d696e74696e67206d6f7265207468616e20706f737369626c652076616c756545524332303a207472616e736665722066726f6d20746865207a65726f206164647265737345524332303a20617070726f76652066726f6d20746865207a65726f2061646472657373a264697066735822122002dbda448a5698bf491ffa9b4f17df8cbeb41569ea061dbf4f41aca094aa5bed64736f6c63430006060033526f6c65733a206163636f756e7420697320746865207a65726f2061646472657373",
  "immutableReferences": {},
  "source": "// SPDX-License-Identifier: MIT\n\npragma solidity 0.6.6;\n\n/**\n     * Thera.Foundation Emerald Smart Contract - Suite of foundings to develop the Amazon.\n     * \n     * Each Thera reforests a tree among 2000 species of selected breed, some harness shadow others enroot water, others help life some bring bees.\n     * To Receive Theras, Choose a TheraFounding of your Choose. Each TheraFounding also develops the bestest of technology in the Amazon Region.\n     * All TheraFounding projects depend on each other to co-exist and co-evolve, TheraLaw helps connect TheraSpace with TheraTech, all Co-Developing.\n     * There will be a total of 13 TheraFoundings, each will be Unpaused as team and infrastructure grow.\n     * \n     * \n     * \n     */\n\n\n//All Purpose Library to help with the math equations\n\nlibrary Math {\n    function max(uint256 a, uint256 b) internal pure returns (uint256) {\n        return a >= b ? a : b;\n    }\n\n    function min(uint256 a, uint256 b) internal pure returns (uint256) {\n        return a < b ? a : b;\n    }\n\n    function average(uint256 a, uint256 b) internal pure returns (uint256) {\n        // (a + b) / 2 can overflow, so we distribute\n        return (a / 2) + (b / 2) + ((a % 2 + b % 2) / 2);\n    }\n}\nlibrary SafeMath {\n    function add(uint256 a, uint256 b) internal pure returns (uint256) {\n        uint256 c = a + b;\n        require(c >= a, \"SafeMath: addition overflow\");\n\n        return c;\n    }\n\n    function sub(uint256 a, uint256 b) internal pure returns (uint256) {\n        require(b <= a, \"SafeMath: subtraction overflow\");\n        uint256 c = a - b;\n\n        return c;\n    }\n\n    function mul(uint256 a, uint256 b) internal pure returns (uint256) {\n        // Gas optimization: this is cheaper than requiring 'a' not being zero, but the\n        // benefit is lost if 'b' is also tested.\n        // See: https://github.com/OpenZeppelin/openzeppelin-solidity/pull/522\n        if (a == 0) {\n            return 0;\n        }\n\n        uint256 c = a * b;\n        require(c / a == b, \"SafeMath: multiplication overflow\");\n\n        return c;\n    }\n\n    function div(uint256 a, uint256 b) internal pure returns (uint256) {\n        // Solidity only automatically asserts when dividing by 0\n        require(b > 0, \"SafeMath: division by zero\");\n        uint256 c = a / b;\n        // assert(a == b * c + a % b); // There is no case in which this doesn't hold\n\n        return c;\n    }\n\n    function mod(uint256 a, uint256 b) internal pure returns (uint256) {\n        require(b != 0, \"SafeMath: modulo by zero\");\n        return a % b;\n    }\n}\n\n//All purpose contract giving ownership to Contract\ncontract Ownable {\n    address payable private _owner;\n\n    event OwnershipTransferred(address indexed previousOwner, address indexed newOwner);\n\n    constructor () internal {\n        _owner = msg.sender;\n        emit OwnershipTransferred(address(0), _owner);\n    }\n\n    /**\n     * @dev Returns the address of the current owner.\n     */\n    function owner() public view returns (address payable) {\n        return _owner;\n    }\n\n    /**\n     * @dev Throws if called by any account other than the owner.\n     */\n    modifier onlyOwner() {\n        require(isOwner(), \"Ownable: caller is not the owner\");\n        _;\n    }\n\n    /**\n     * @dev Returns true if the caller is the current owner.\n     */\n    function isOwner() public view returns (bool) {\n        return msg.sender == _owner;\n    }\n\n    function transferOwnership(address payable newOwner) public onlyOwner {\n        _transferOwnership(newOwner);\n    }\n\n    function _transferOwnership(address payable newOwner) internal {\n        require(newOwner != address(0), \"Ownable: new owner is the zero address\");\n        emit OwnershipTransferred(_owner, newOwner);\n        _owner = newOwner;\n    }\n}\n//Erc20 Interface to negotatiate with open market in a standard giving more value and tradablilty \ninterface IERC20 {\n    function totalSupply() external view returns (uint256);\n    function balanceOf(address account) external view returns (uint256);\n    function transfer(address recipient, uint256 amount) external returns (bool);\n    function allowance(address owner, address spender) external view returns (uint256);\n    function approve(address spender, uint256 amount) external returns (bool);\n    function transferFrom(address sender, address recipient, uint256 amount) external returns (bool);\n    event Transfer(address indexed from, address indexed to, uint256 value);\n    event Approval(address indexed owner, address indexed spender, uint256 value);\n}\n\n// ERC20 Contract and directions of flow between ethereum, token and User.\ncontract ERC20 is IERC20 {\n    using SafeMath for uint256;\n    mapping (address => uint256) private _balances;\n    mapping (address => mapping (address => uint256)) private _allowances;\n    uint256 private _totalSupply;\n    uint256 private constant MAXCAP = 10000000 * (10 ** uint256(18));\n\n    function totalSupply() override public view returns (uint256) {\n        return _totalSupply;\n    }\n\n    function balanceOf(address account) override public view returns (uint256) {\n        return _balances[account];\n    }\n\n    function transfer(address recipient, uint256 amount) override public returns (bool) {\n        _transfer(msg.sender, recipient, amount);\n        return true;\n    }\n\n    function allowance(address owner, address spender) override public view returns (uint256) {\n        return _allowances[owner][spender];\n    }\n\n    function approve(address spender, uint256 value) override public returns (bool) {\n        _approve(msg.sender, spender, value);\n        return true;\n    }\n\n    function transferFrom(address sender, address recipient, uint256 amount) override public returns (bool) {\n        _transfer(sender, recipient, amount);\n        _approve(sender, msg.sender, _allowances[sender][msg.sender].sub(amount));\n        return true;\n    }\n\n    function increaseAllowance(address spender, uint256 addedValue) public returns (bool) {\n        _approve(msg.sender, spender, _allowances[msg.sender][spender].add(addedValue));\n        return true;\n    }\n\n    function decreaseAllowance(address spender, uint256 subtractedValue) public returns (bool) {\n        _approve(msg.sender, spender, _allowances[msg.sender][spender].sub(subtractedValue));\n        return true;\n    }\n\n    function _transfer(address sender, address recipient, uint256 amount) internal {\n        require(sender != address(0), \"ERC20: transfer from the zero address\");\n        require(recipient != address(0), \"ERC20: transfer to the zero address\");\n\n        _balances[sender] = _balances[sender].sub(amount);\n        _balances[recipient] = _balances[recipient].add(amount);\n        emit Transfer(sender, recipient, amount);\n    }\n\n    function _mint(address account, uint256 amount) internal {\n        require(account != address(0), \"ERC20: mint to the zero address\");\n        require(amount + totalSupply() <= MAXCAP, \"Max Cap: request for minting more than possible value\");\n        \n        _totalSupply = _totalSupply.add(amount);\n        _balances[account] = _balances[account].add(amount);\n        emit Transfer(address(0), account, amount);\n    }\n\n    function _approve(address owner, address spender, uint256 value) internal {\n        require(owner != address(0), \"ERC20: approve from the zero address\");\n        require(spender != address(0), \"ERC20: approve to the zero address\");\n\n        _allowances[owner][spender] = value;\n        emit Approval(owner, spender, value);\n    }\n\n}\n\n//Token Details with name, symbol and Decimals\nabstract contract ERC20Detailed is IERC20 {\n    string private _name;\n    string private _symbol;\n    uint8 private _decimals;\n\n    constructor (string memory name, string memory symbol, uint8 decimals) public {\n        _name = name;\n        _symbol = symbol;\n        _decimals = decimals;\n    }\n\n    function name() public view returns (string memory) {\n        return _name;\n    }\n\n    function symbol() public view returns (string memory) {\n        return _symbol;\n    }\n\n    function decimals() public view returns (uint8) {\n        return _decimals;\n    }\n}\n\n//Roles help store addresses and give them functions.\nlibrary Roles {\n    struct Role {\n        mapping (address => bool) bearer;\n    }\n\n    function add(Role storage role, address account) internal {\n        require(!has(role, account), \"Roles: account already has role\");\n        role.bearer[account] = true;\n    }\n\n    function remove(Role storage role, address account) internal {\n        require(has(role, account), \"Roles: account does not have role\");\n        role.bearer[account] = false;\n    }\n\n    function has(Role storage role, address account) internal view returns (bool) {\n        require(account != address(0), \"Roles: account is the zero address\");\n        return role.bearer[account];\n    }\n}\n//The Pauser Role helps Pause the Contract.\ncontract PauserRole {\n    using Roles for Roles.Role;\n\n    event PauserAdded(address indexed account);\n    event PauserRemoved(address indexed account);\n\n    Roles.Role private _pausers;\n\n    constructor () internal {\n        _addPauser(msg.sender);\n    }\n\n    modifier onlyPauser() {\n        require(isPauser(msg.sender), \"PauserRole: caller does not have the Pauser role\");\n        _;\n    }\n\n    function isPauser(address account) public view returns (bool) {\n        return _pausers.has(account);\n    }\n\n    function addPauser(address account) public onlyPauser {\n        _addPauser(account);\n    }\n\n    function _addPauser(address account) internal {\n        _pausers.add(account);\n        emit PauserAdded(account);\n    }\n\n    function _removePauser(address account) internal {\n        _pausers.remove(account);\n        emit PauserRemoved(account);\n    }\n}\n\ncontract Pausable is PauserRole {\n    event Paused(address account);\n    event Unpaused(address account);\n    bool private _paused;\n\n    constructor () internal {\n        _paused = false;\n    }\n\n    function paused() public view returns (bool) {\n        return _paused;\n    }\n\n    modifier whenNotPaused() {\n        require(!_paused, \"Pausable: paused\");\n        _;\n    }\n\n    modifier whenPaused() {\n        require(_paused, \"Pausable: not paused\");\n        _;\n    }\n\n    function pause() public onlyPauser whenNotPaused {\n        _paused = true;\n        emit Paused(msg.sender);\n    }\n\n    function unpause() public onlyPauser whenPaused {\n        _paused = false;\n        emit Unpaused(msg.sender);\n    }\n}\ncontract MinterRole {\n    using Roles for Roles.Role;\n\n    event MinterAdded(address indexed account);\n    event MinterRemoved(address indexed account);\n\n    Roles.Role private _minters;\n\n    constructor () internal {\n        _addMinter(msg.sender);\n    }\n\n    modifier onlyMinter() {\n        require(isMinter(msg.sender), \"MinterRole: caller does not have the Minter role\");\n        _;\n    }\n\n    function isMinter(address account) public view returns (bool) {\n        return _minters.has(account);\n    }\n\n    function addMinter(address account) public onlyMinter {\n        _addMinter(account);\n    }\n\n    function _addMinter(address account) internal {\n        _minters.add(account);\n        emit MinterAdded(account);\n    }\n\n    function _removeMinter(address account) internal {\n        _minters.remove(account);\n        emit MinterRemoved(account);\n    }\n}\ncontract TheraSeeding is ERC20, MinterRole {\n    function mint(address account, uint256 amount) public onlyMinter returns (bool) {\n        _mint(account, amount);\n        return true;\n    }\n}\nlibrary Address {\n    function isContract(address account) internal view returns (bool) {\n        uint256 size;\n        // solhint-disable-next-line no-inline-assembly\n        assembly { size := extcodesize(account) }\n        return size > 0;\n    }\n}\nlibrary SafeERC20 {\n    using SafeMath for uint256;\n    using Address for address;\n\n    function safeTransfer(IERC20 token, address to, uint256 value) internal {\n        callOptionalReturn(token, abi.encodeWithSelector(token.transfer.selector, to, value));\n    }\n\n    function safeTransferFrom(IERC20 token, address from, address to, uint256 value) internal {\n        callOptionalReturn(token, abi.encodeWithSelector(token.transferFrom.selector, from, to, value));\n    }\n\n    function safeApprove(IERC20 token, address spender, uint256 value) internal {\n        require((value == 0) || (token.allowance(address(this), spender) == 0),\n            \"SafeERC20: approve from non-zero to non-zero allowance\"\n        );\n        callOptionalReturn(token, abi.encodeWithSelector(token.approve.selector, spender, value));\n    }\n\n    function safeIncreaseAllowance(IERC20 token, address spender, uint256 value) internal {\n        uint256 newAllowance = token.allowance(address(this), spender).add(value);\n        callOptionalReturn(token, abi.encodeWithSelector(token.approve.selector, spender, newAllowance));\n    }\n\n    function safeDecreaseAllowance(IERC20 token, address spender, uint256 value) internal {\n        uint256 newAllowance = token.allowance(address(this), spender).sub(value);\n        callOptionalReturn(token, abi.encodeWithSelector(token.approve.selector, spender, newAllowance));\n    }\n\n    function callOptionalReturn(IERC20 token, bytes memory data) private {\n        require(address(token).isContract(), \"SafeERC20: call to non-contract\");\n\n        // solhint-disable-next-line avoid-low-level-calls\n        (bool success, bytes memory returndata) = address(token).call(data);\n        require(success, \"SafeERC20: low-level call failed\");\n\n        if (returndata.length > 0) { // Return data is optional\n            // solhint-disable-next-line max-line-length\n            require(abi.decode(returndata, (bool)), \"SafeERC20: ERC20 operation did not succeed\");\n        }\n    }\n}\ncontract ReentrancyGuard {\n    uint256 private _guardCounter;\n\n    constructor () internal {\n        _guardCounter = 1;\n    }\n\n    modifier nonReentrant() {\n        _guardCounter += 1;\n        uint256 localCounter = _guardCounter;\n        _;\n        require(localCounter == _guardCounter, \"ReentrancyGuard: reentrant call\");\n    }\n}\n\n//Crowdsale for the Trees.\ncontract Crowdsale is ReentrancyGuard, Pausable {\n    using SafeMath for uint256;\n    using SafeERC20 for IERC20;\n    IERC20 private _token;\n    address payable private _wallet;\n    uint256 private _rate;\n    uint256 private _weiRaised;\n\n    event TokensPurchased(address indexed purchaser, address indexed beneficiary, uint256 value, uint256 amount);\n    constructor (uint256 rate, address payable wallet, IERC20 token) public {\n        require(rate > 0, \"Crowdsale: rate is 0\");\n        require(wallet != address(0), \"Crowdsale: wallet is the zero address\");\n        require(address(token) != address(0), \"Crowdsale: token is the zero address\");\n\n        _rate = rate;\n        _wallet = wallet;\n        _token = token;\n    }\n\n   receive () external payable {\n       this.buyTokens{value: msg.value}(msg.sender);\n    }\n\n    function token() public view returns (IERC20) {\n        return _token;\n    }\n\n    function wallet() public view returns (address payable) {\n        return _wallet;\n    }\n\n    function rate() public view returns (uint256) {\n        return _rate;\n    }\n\n    function weiRaised() public view returns (uint256) {\n        return _weiRaised;\n    }\n\n    function buyTokens(address beneficiary) public nonReentrant whenNotPaused payable {\n        require(beneficiary != address(0), \"Crowdsale: beneficiary is the zero address\");\n        uint256 weiAmount = msg.value;\n        _preValidatePurchase(beneficiary, weiAmount);\n\n        // calculate token amount to be created\n        uint256 tokens = _getTokenAmount(weiAmount);\n        tokens = tokens.mul(10 ** uint256(18));\n        // update state\n        _weiRaised = _weiRaised.add(weiAmount);\n        \n        _processPurchase(beneficiary, tokens);\n        emit TokensPurchased(msg.sender, beneficiary, weiAmount, tokens);\n\n        _updatePurchasingState(beneficiary, weiAmount);\n\n        _forwardFunds();\n        _postValidatePurchase(beneficiary, weiAmount);\n    }\n\n    function _preValidatePurchase(address beneficiary, uint256 weiAmount) internal view {\n        require(beneficiary != address(0), \"Crowdsale: beneficiary is the zero address\");\n        require(weiAmount != 0, \"Crowdsale: weiAmount is 0\");\n    }\n\n    function _postValidatePurchase(address beneficiary, uint256 weiAmount) internal view {\n        // solhint-disable-previous-line no-empty-blocks\n    }\n\n    function _deliverTokens(address beneficiary, uint256 tokenAmount) virtual internal {\n        _token.safeTransfer(beneficiary, tokenAmount);\n    }\n\n    function _processPurchase(address beneficiary, uint256 tokenAmount) internal {\n        _deliverTokens(beneficiary, tokenAmount);\n    }\n\n    function _updatePurchasingState(address beneficiary, uint256 weiAmount) internal {\n        // solhint-disable-previous-line no-empty-blocks\n    }\n\n    function _getTokenAmount(uint256 weiAmount) internal view returns (uint256) {\n        return weiAmount.div(_rate);\n    }\n\n    function _forwardFunds() internal {\n        _wallet.transfer(msg.value);\n    }\n}\nabstract contract TheraFounding is Crowdsale {\n    function _deliverTokens(address beneficiary, uint256 tokenAmount) override internal {\n        // Potentially dangerous assumption about the type of the token.\n        require(\n            TheraSeeding(address(token())).mint(beneficiary, tokenAmount),\n                \"MintedCrowdsale: minting failed\"\n        );\n    }\n}\n\n//Token Contract stabilized with Details, Minting qualitys and ownability.\ncontract Thera is ERC20, ERC20Detailed,TheraSeeding, Ownable, Pausable  {\n    uint8 internal constant DECIMALS = 18;\n\n    receive() external payable {\n    }\n    \n    function getBalance() public view returns(uint256) {\n        return address(this).balance;\n    }\n    \n    function withdrawEther() external onlyOwner {\n        owner().transfer(getBalance());\n    }\n    \n    constructor ()  public\n     ERC20Detailed(\"Thera\", \"Thera\", DECIMALS)  {\n    }\n}\n//Minter Minting Contract seeding Theras for the purpose of developing Drone technology capable of automated reforestations.\ncontract TheraAether is TheraFounding {\n    uint256 internal constant RATE = 39060000000000000;\n    \n    constructor(address payable Wallet, address payable Token) public Crowdsale(RATE, Wallet, TheraSeeding(Token)) {\n    }\n}\n//Minter Minting Contract seeding Theras for the purpose of developing Drone technology capable of automated reforestations.\ncontract TheraSeed is TheraFounding {\n    uint256 internal constant RATE = 39060000000000000;\n    \n    constructor(address payable Wallet, address payable Token) public Crowdsale(RATE, Wallet, TheraSeeding(Token)) {\n    }\n}\n//Minter Minting Contract seeding Theras for the purpose of developing blockchain like market selling Amazonian products.\ncontract TheraMarket is TheraFounding {\n    uint256 internal constant RATE = 39060000000000000;\n    \n    constructor(address payable Wallet, address payable Token) public Crowdsale(RATE, Wallet, TheraSeeding(Token)) {\n    }\n}\n//Minter Minting Contract seeding Theras for the purpose of developing Impactful Mega infrastructures in contact with nature in a sustainable way.\ncontract TheraLaw is TheraFounding {\n    uint256 internal constant RATE = 39060000000000000;\n    \n    constructor(address payable Wallet, address payable Token) public Crowdsale(RATE, Wallet, TheraSeeding(Token)) {\n    }\n}\n//Minter Minting Contract seeding Theras for the purpose of developing Software and program like dapps to enhance all TheraFoundings.\ncontract TheraDev is TheraFounding {\n    uint256 internal constant RATE = 39060000000000000;\n    \n    constructor(address payable Wallet, address payable Token) public Crowdsale(RATE, Wallet, TheraSeeding(Token)) {\n    }\n}\n//Minter Minting Contract seeding Theras for the purpose of developing Disruptive technology and uniting multi-patent technologies for genesis like creations.\ncontract TheraTech is TheraFounding {\n    uint256 internal constant RATE = 39060000000000000;\n    \n    constructor(address payable Wallet, address payable Token) public Crowdsale(RATE, Wallet, TheraSeeding(Token)) {\n    }\n}\n\n//Minter Minting Contract seeding Theras for the purpose of developing Impactful Mega infrastructures in contact with nature in a sustainable way.\ncontract TheraConstruction is TheraFounding {\n    uint256 internal constant RATE = 39060000000000000;\n    \n    constructor(address payable Wallet, address payable Token) public Crowdsale(RATE, Wallet, TheraSeeding(Token)) {\n    }\n}\n//Minter Minting Contract seeding Theras for the purpose of developing Economical break through in the northern region of South America main basis of the the amazon Rainforest.\ncontract TheraEconomy is TheraFounding {\n    uint256 internal constant RATE = 39060000000000000;\n    \n    constructor(address payable Wallet, address payable Token) public Crowdsale(RATE, Wallet, TheraSeeding(Token)) {\n    }\n}\n//Minter Minting Contract seeding Theras for the purpose of developing art, music,events, festivals and entertainment like business to expand marketing and visiability.\ncontract TheraArt is TheraFounding {\n    uint256 internal constant RATE = 39060000000000000;\n    \n    constructor(address payable Wallet, address payable Token) public Crowdsale(RATE, Wallet, TheraSeeding(Token)) {\n    }\n}\n\n//Minter Minting Contract seeding Theras for the purpose of developing 0 point renewable Energy in the Amazon.\ncontract TheraEnergy is TheraFounding {\n    uint256 internal constant RATE = 39060000000000000;\n    \n    constructor(address payable Wallet, address payable Token) public Crowdsale(RATE, Wallet, TheraSeeding(Token)) {\n    }\n}\n//Minter Minting Contract seeding Theras for the purpose of developing better connection among humanitarian crisis, ONGs and Diplomatic Affairs.\ncontract TheraGov is TheraFounding {\n    uint256 internal constant RATE = 39060000000000000;\n    \n    constructor(address payable Wallet, address payable Token) public Crowdsale(RATE, Wallet, TheraSeeding(Token)) {\n    }\n}\n//Minter Minting Contract seeding Theras for the purpose of developing Medicine and BioTech To cure the world from diseases with the rich Natural resources from the Amazon\ncontract TheraBioTech is TheraFounding {\n    uint256 internal constant RATE = 39060000000000000;\n    \n    constructor(address payable Wallet, address payable Token) public Crowdsale(RATE, Wallet, TheraSeeding(Token)) {\n    }\n}\n//Minter Minting Contract seeding Theras for the purpose of developing space technology in the Amazon Equatoria Line with universal launches in perspective and fuel saving\ncontract TheraSpace is TheraFounding {\n    uint256 internal constant RATE = 39060000000000000;\n    \n    constructor(address payable Wallet, address payable Token) public Crowdsale(RATE, Wallet, TheraSeeding(Token)) {\n    }\n}\n//Minter Minting Contract seeding Theras for the purpose of developing Unique Niobium like studies to protect earths resources through use of metal mixing and saving.\ncontract TheraMining is TheraFounding {\n    uint256 internal constant RATE = 39060000000000000;\n    \n    constructor(address payable Wallet, address payable Token) public Crowdsale(RATE, Wallet, TheraSeeding(Token)) {\n    }\n}\n\n",
  "sourcePath": "/Users/derek/Thera/contracts/Thera.sol",
  "compiler": {
    "name": "solc",
    "version": "0.6.6+commit.6c089d02.Emscripten.clang"
  },
  "schemaVersion": "3.2.5",
  "updatedAt": "2020-10-13T22:59:39.993Z",
  "devdoc": {
    "methods": {}
  },
  "userdoc": {
    "methods": {}
  }
}