{
  "contractName": "TheraEnergy",
  "abi": [
    {
      "inputs": [
        {
          "internalType": "address payable",
          "name": "Wallet",
          "type": "address"
        },
        {
          "internalType": "address payable",
          "name": "Token",
          "type": "address"
        }
      ],
      "payable": false,
      "stateMutability": "nonpayable",
      "type": "constructor"
    },
    {
      "anonymous": false,
      "inputs": [
        {
          "indexed": false,
          "internalType": "address",
          "name": "account",
          "type": "address"
        }
      ],
      "name": "Paused",
      "type": "event"
    },
    {
      "anonymous": false,
      "inputs": [
        {
          "indexed": true,
          "internalType": "address",
          "name": "account",
          "type": "address"
        }
      ],
      "name": "PauserAdded",
      "type": "event"
    },
    {
      "anonymous": false,
      "inputs": [
        {
          "indexed": true,
          "internalType": "address",
          "name": "account",
          "type": "address"
        }
      ],
      "name": "PauserRemoved",
      "type": "event"
    },
    {
      "anonymous": false,
      "inputs": [
        {
          "indexed": true,
          "internalType": "address",
          "name": "purchaser",
          "type": "address"
        },
        {
          "indexed": true,
          "internalType": "address",
          "name": "beneficiary",
          "type": "address"
        },
        {
          "indexed": false,
          "internalType": "uint256",
          "name": "value",
          "type": "uint256"
        },
        {
          "indexed": false,
          "internalType": "uint256",
          "name": "amount",
          "type": "uint256"
        }
      ],
      "name": "TokensPurchased",
      "type": "event"
    },
    {
      "anonymous": false,
      "inputs": [
        {
          "indexed": false,
          "internalType": "address",
          "name": "account",
          "type": "address"
        }
      ],
      "name": "Unpaused",
      "type": "event"
    },
    {
      "payable": true,
      "stateMutability": "payable",
      "type": "fallback"
    },
    {
      "constant": false,
      "inputs": [
        {
          "internalType": "address",
          "name": "account",
          "type": "address"
        }
      ],
      "name": "addPauser",
      "outputs": [],
      "payable": false,
      "stateMutability": "nonpayable",
      "type": "function"
    },
    {
      "constant": false,
      "inputs": [
        {
          "internalType": "address",
          "name": "beneficiary",
          "type": "address"
        }
      ],
      "name": "buyTokens",
      "outputs": [],
      "payable": true,
      "stateMutability": "payable",
      "type": "function"
    },
    {
      "constant": true,
      "inputs": [
        {
          "internalType": "address",
          "name": "account",
          "type": "address"
        }
      ],
      "name": "isPauser",
      "outputs": [
        {
          "internalType": "bool",
          "name": "",
          "type": "bool"
        }
      ],
      "payable": false,
      "stateMutability": "view",
      "type": "function"
    },
    {
      "constant": false,
      "inputs": [],
      "name": "pause",
      "outputs": [],
      "payable": false,
      "stateMutability": "nonpayable",
      "type": "function"
    },
    {
      "constant": true,
      "inputs": [],
      "name": "paused",
      "outputs": [
        {
          "internalType": "bool",
          "name": "",
          "type": "bool"
        }
      ],
      "payable": false,
      "stateMutability": "view",
      "type": "function"
    },
    {
      "constant": true,
      "inputs": [],
      "name": "rate",
      "outputs": [
        {
          "internalType": "uint256",
          "name": "",
          "type": "uint256"
        }
      ],
      "payable": false,
      "stateMutability": "view",
      "type": "function"
    },
    {
      "constant": true,
      "inputs": [],
      "name": "token",
      "outputs": [
        {
          "internalType": "contract IERC20",
          "name": "",
          "type": "address"
        }
      ],
      "payable": false,
      "stateMutability": "view",
      "type": "function"
    },
    {
      "constant": false,
      "inputs": [],
      "name": "unpause",
      "outputs": [],
      "payable": false,
      "stateMutability": "nonpayable",
      "type": "function"
    },
    {
      "constant": true,
      "inputs": [],
      "name": "wallet",
      "outputs": [
        {
          "internalType": "address payable",
          "name": "",
          "type": "address"
        }
      ],
      "payable": false,
      "stateMutability": "view",
      "type": "function"
    },
    {
      "constant": true,
      "inputs": [],
      "name": "weiRaised",
      "outputs": [
        {
          "internalType": "uint256",
          "name": "",
          "type": "uint256"
        }
      ],
      "payable": false,
      "stateMutability": "view",
      "type": "function"
    }
  ],
  "bytecode": "0x60806040523480156200001157600080fd5b50604051620015ed380380620015ed833981810160405260408110156200003757600080fd5b810190808051906020019092919080519060200190929190505050668ac4dcf0ed4000828260016000819055506200007533620002ab60201b60201c565b6000600260006101000a81548160ff0219169083151502179055506000831162000107576040517f08c379a00000000000000000000000000000000000000000000000000000000081526004018080602001828103825260148152602001807f43726f776473616c653a2072617465206973203000000000000000000000000081525060200191505060405180910390fd5b600073ffffffffffffffffffffffffffffffffffffffff168273ffffffffffffffffffffffffffffffffffffffff1614156200018f576040517f08c379a0000000000000000000000000000000000000000000000000000000008152600401808060200182810382526025815260200180620015c86025913960400191505060405180910390fd5b600073ffffffffffffffffffffffffffffffffffffffff168173ffffffffffffffffffffffffffffffffffffffff16141562000217576040517f08c379a0000000000000000000000000000000000000000000000000000000008152600401808060200182810382526024815260200180620015826024913960400191505060405180910390fd5b8260048190555081600360006101000a81548173ffffffffffffffffffffffffffffffffffffffff021916908373ffffffffffffffffffffffffffffffffffffffff16021790555080600260016101000a81548173ffffffffffffffffffffffffffffffffffffffff021916908373ffffffffffffffffffffffffffffffffffffffff1602179055505050505050620004d0565b620002c68160016200030c60201b62000ef51790919060201c565b8073ffffffffffffffffffffffffffffffffffffffff167f6719d08c1888103bea251a4ed56406bd0c3e69723c8a1686e017e7bbe159b6f860405160405180910390a250565b6200031e8282620003f060201b60201c565b1562000392576040517f08c379a000000000000000000000000000000000000000000000000000000000815260040180806020018281038252601f8152602001807f526f6c65733a206163636f756e7420616c72656164792068617320726f6c650081525060200191505060405180910390fd5b60018260000160008373ffffffffffffffffffffffffffffffffffffffff1673ffffffffffffffffffffffffffffffffffffffff16815260200190815260200160002060006101000a81548160ff0219169083151502179055505050565b60008073ffffffffffffffffffffffffffffffffffffffff168273ffffffffffffffffffffffffffffffffffffffff16141562000479576040517f08c379a0000000000000000000000000000000000000000000000000000000008152600401808060200182810382526022815260200180620015a66022913960400191505060405180910390fd5b8260000160008373ffffffffffffffffffffffffffffffffffffffff1673ffffffffffffffffffffffffffffffffffffffff16815260200190815260200160002060009054906101000a900460ff16905092915050565b6110a280620004e06000396000f3fe6080604052600436106100915760003560e01c80635c975abb116100595780635c975abb146101c957806382dc1ec4146101f85780638456cb5914610249578063ec8ac4d814610260578063fc0c546a146102a457610091565b80632c4e722e1461009c5780633f4ba83a146100c75780634042b66f146100de57806346fbf68e14610109578063521eb27314610172575b61009a336102fb565b005b3480156100a857600080fd5b506100b161057a565b6040518082815260200191505060405180910390f35b3480156100d357600080fd5b506100dc610584565b005b3480156100ea57600080fd5b506100f36106e4565b6040518082815260200191505060405180910390f35b34801561011557600080fd5b506101586004803603602081101561012c57600080fd5b81019080803573ffffffffffffffffffffffffffffffffffffffff1690602001909291905050506106ee565b604051808215151515815260200191505060405180910390f35b34801561017e57600080fd5b5061018761070b565b604051808273ffffffffffffffffffffffffffffffffffffffff1673ffffffffffffffffffffffffffffffffffffffff16815260200191505060405180910390f35b3480156101d557600080fd5b506101de610735565b604051808215151515815260200191505060405180910390f35b34801561020457600080fd5b506102476004803603602081101561021b57600080fd5b81019080803573ffffffffffffffffffffffffffffffffffffffff16906020019092919050505061074c565b005b34801561025557600080fd5b5061025e6107b6565b005b6102a26004803603602081101561027657600080fd5b81019080803573ffffffffffffffffffffffffffffffffffffffff1690602001909291905050506102fb565b005b3480156102b057600080fd5b506102b9610917565b604051808273ffffffffffffffffffffffffffffffffffffffff1673ffffffffffffffffffffffffffffffffffffffff16815260200191505060405180910390f35b60016000808282540192505081905550600080549050600260009054906101000a900460ff1615610394576040517f08c379a00000000000000000000000000000000000000000000000000000000081526004018080602001828103825260108152602001807f5061757361626c653a207061757365640000000000000000000000000000000081525060200191505060405180910390fd5b600073ffffffffffffffffffffffffffffffffffffffff168273ffffffffffffffffffffffffffffffffffffffff16141561041a576040517f08c379a000000000000000000000000000000000000000000000000000000000815260040180806020018281038252602a815260200180611044602a913960400191505060405180910390fd5b60003490506104298382610941565b600061043482610a42565b905061044d6012600a0a82610a6090919063ffffffff16565b905061046482600554610ae690919063ffffffff16565b6005819055506104748482610b6e565b8373ffffffffffffffffffffffffffffffffffffffff163373ffffffffffffffffffffffffffffffffffffffff167f6faf93231a456e552dbc9961f58d9713ee4f2e69d15f1975b050ef0911053a7b8484604051808381526020018281526020019250505060405180910390a36104eb8483610b7c565b6104f3610b80565b6104fd8483610beb565b50506000548114610576576040517f08c379a000000000000000000000000000000000000000000000000000000000815260040180806020018281038252601f8152602001807f5265656e7472616e637947756172643a207265656e7472616e742063616c6c0081525060200191505060405180910390fd5b5050565b6000600454905090565b61058d336106ee565b6105e2576040517f08c379a0000000000000000000000000000000000000000000000000000000008152600401808060200182810382526030815260200180610fd16030913960400191505060405180910390fd5b600260009054906101000a900460ff16610664576040517f08c379a00000000000000000000000000000000000000000000000000000000081526004018080602001828103825260148152602001807f5061757361626c653a206e6f742070617573656400000000000000000000000081525060200191505060405180910390fd5b6000600260006101000a81548160ff0219169083151502179055507f5db9ee0a495bf2e6ff9c91a7834c1ba4fdd244a5e8aa4e537bd38aeae4b073aa33604051808273ffffffffffffffffffffffffffffffffffffffff1673ffffffffffffffffffffffffffffffffffffffff16815260200191505060405180910390a1565b6000600554905090565b6000610704826001610bef90919063ffffffff16565b9050919050565b6000600360009054906101000a900473ffffffffffffffffffffffffffffffffffffffff16905090565b6000600260009054906101000a900460ff16905090565b610755336106ee565b6107aa576040517f08c379a0000000000000000000000000000000000000000000000000000000008152600401808060200182810382526030815260200180610fd16030913960400191505060405180910390fd5b6107b381610ccd565b50565b6107bf336106ee565b610814576040517f08c379a0000000000000000000000000000000000000000000000000000000008152600401808060200182810382526030815260200180610fd16030913960400191505060405180910390fd5b600260009054906101000a900460ff1615610897576040517f08c379a00000000000000000000000000000000000000000000000000000000081526004018080602001828103825260108152602001807f5061757361626c653a207061757365640000000000000000000000000000000081525060200191505060405180910390fd5b6001600260006101000a81548160ff0219169083151502179055507f62e78cea01bee320cd4e420270b5ea74000d11b0c9f74754ebdbfc544b05a25833604051808273ffffffffffffffffffffffffffffffffffffffff1673ffffffffffffffffffffffffffffffffffffffff16815260200191505060405180910390a1565b6000600260019054906101000a900473ffffffffffffffffffffffffffffffffffffffff16905090565b600073ffffffffffffffffffffffffffffffffffffffff168273ffffffffffffffffffffffffffffffffffffffff1614156109c7576040517f08c379a000000000000000000000000000000000000000000000000000000000815260040180806020018281038252602a815260200180611044602a913960400191505060405180910390fd5b6000811415610a3e576040517f08c379a00000000000000000000000000000000000000000000000000000000081526004018080602001828103825260198152602001807f43726f776473616c653a20776569416d6f756e7420697320300000000000000081525060200191505060405180910390fd5b5050565b6000610a5960045483610d2790919063ffffffff16565b9050919050565b600080831415610a735760009050610ae0565b6000828402905082848281610a8457fe5b0414610adb576040517f08c379a00000000000000000000000000000000000000000000000000000000081526004018080602001828103825260218152602001806110016021913960400191505060405180910390fd5b809150505b92915050565b600080828401905083811015610b64576040517f08c379a000000000000000000000000000000000000000000000000000000000815260040180806020018281038252601b8152602001807f536166654d6174683a206164646974696f6e206f766572666c6f77000000000081525060200191505060405180910390fd5b8091505092915050565b610b788282610db6565b5050565b5050565b600360009054906101000a900473ffffffffffffffffffffffffffffffffffffffff1673ffffffffffffffffffffffffffffffffffffffff166108fc349081150290604051600060405180830381858888f19350505050158015610be8573d6000803e3d6000fd5b50565b5050565b60008073ffffffffffffffffffffffffffffffffffffffff168273ffffffffffffffffffffffffffffffffffffffff161415610c76576040517f08c379a00000000000000000000000000000000000000000000000000000000081526004018080602001828103825260228152602001806110226022913960400191505060405180910390fd5b8260000160008373ffffffffffffffffffffffffffffffffffffffff1673ffffffffffffffffffffffffffffffffffffffff16815260200190815260200160002060009054906101000a900460ff16905092915050565b610ce1816001610ef590919063ffffffff16565b8073ffffffffffffffffffffffffffffffffffffffff167f6719d08c1888103bea251a4ed56406bd0c3e69723c8a1686e017e7bbe159b6f860405160405180910390a250565b6000808211610d9e576040517f08c379a000000000000000000000000000000000000000000000000000000000815260040180806020018281038252601a8152602001807f536166654d6174683a206469766973696f6e206279207a65726f00000000000081525060200191505060405180910390fd5b6000828481610da957fe5b0490508091505092915050565b610dbe610917565b73ffffffffffffffffffffffffffffffffffffffff166340c10f1983836040518363ffffffff1660e01b8152600401808373ffffffffffffffffffffffffffffffffffffffff1673ffffffffffffffffffffffffffffffffffffffff16815260200182815260200192505050602060405180830381600087803b158015610e4457600080fd5b505af1158015610e58573d6000803e3d6000fd5b505050506040513d6020811015610e6e57600080fd5b8101908080519060200190929190505050610ef1576040517f08c379a000000000000000000000000000000000000000000000000000000000815260040180806020018281038252601f8152602001807f4d696e74656443726f776473616c653a206d696e74696e67206661696c65640081525060200191505060405180910390fd5b5050565b610eff8282610bef565b15610f72576040517f08c379a000000000000000000000000000000000000000000000000000000000815260040180806020018281038252601f8152602001807f526f6c65733a206163636f756e7420616c72656164792068617320726f6c650081525060200191505060405180910390fd5b60018260000160008373ffffffffffffffffffffffffffffffffffffffff1673ffffffffffffffffffffffffffffffffffffffff16815260200190815260200160002060006101000a81548160ff021916908315150217905550505056fe506175736572526f6c653a2063616c6c657220646f6573206e6f742068617665207468652050617573657220726f6c65536166654d6174683a206d756c7469706c69636174696f6e206f766572666c6f77526f6c65733a206163636f756e7420697320746865207a65726f206164647265737343726f776473616c653a2062656e656669636961727920697320746865207a65726f2061646472657373a265627a7a723158207bf74bf9de8b72b3e1b41f98afe9e55c4fec1e60e22f93e4dbf7b886f360a81764736f6c6343000510003243726f776473616c653a20746f6b656e20697320746865207a65726f2061646472657373526f6c65733a206163636f756e7420697320746865207a65726f206164647265737343726f776473616c653a2077616c6c657420697320746865207a65726f2061646472657373",
  "source": "pragma solidity ^0.5.1;\n\n/**\n     * Thera.Foundation Emerald Smart Contract - Suite of foundings to develop the Amazon.\n     * \n     * Each Thera reforests a tree among 2000 species of selected breed, some harness shadow others enroot water, others help life some bring bees.\n     * To Receive Theras, Choose a TheraFounding of your Choose. Each TheraFounding also develops the bestest of technology in the Amazon Region.\n     * All TheraFounding projects depend on each other to co-exist and co-evolve, TheraLaw helps connect TheraSpace with TheraTech, all Co-Developing.\n     * There will be a total of 16 TheraFoundings, each will be Unpaused as team and infrastructure grow.\n     * \n     * \n     * \n     */\n\n\n//All Purpose Library to help with the math equations\nlibrary Math {\n    function max(uint256 a, uint256 b) internal pure returns (uint256) {\n        return a >= b ? a : b;\n    }\n\n    function min(uint256 a, uint256 b) internal pure returns (uint256) {\n        return a < b ? a : b;\n    }\n\n    function average(uint256 a, uint256 b) internal pure returns (uint256) {\n        // (a + b) / 2 can overflow, so we distribute\n        return (a / 2) + (b / 2) + ((a % 2 + b % 2) / 2);\n    }\n}\nlibrary SafeMath {\n    function add(uint256 a, uint256 b) internal pure returns (uint256) {\n        uint256 c = a + b;\n        require(c >= a, \"SafeMath: addition overflow\");\n\n        return c;\n    }\n\n    function sub(uint256 a, uint256 b) internal pure returns (uint256) {\n        require(b <= a, \"SafeMath: subtraction overflow\");\n        uint256 c = a - b;\n\n        return c;\n    }\n\n    function mul(uint256 a, uint256 b) internal pure returns (uint256) {\n        // Gas optimization: this is cheaper than requiring 'a' not being zero, but the\n        // benefit is lost if 'b' is also tested.\n        // See: https://github.com/OpenZeppelin/openzeppelin-solidity/pull/522\n        if (a == 0) {\n            return 0;\n        }\n\n        uint256 c = a * b;\n        require(c / a == b, \"SafeMath: multiplication overflow\");\n\n        return c;\n    }\n\n    function div(uint256 a, uint256 b) internal pure returns (uint256) {\n        // Solidity only automatically asserts when dividing by 0\n        require(b > 0, \"SafeMath: division by zero\");\n        uint256 c = a / b;\n        // assert(a == b * c + a % b); // There is no case in which this doesn't hold\n\n        return c;\n    }\n\n    function mod(uint256 a, uint256 b) internal pure returns (uint256) {\n        require(b != 0, \"SafeMath: modulo by zero\");\n        return a % b;\n    }\n}\n\n//All purpose contract giving ownership to Contract\ncontract Ownable {\n    address payable private _owner;\n\n    event OwnershipTransferred(address indexed previousOwner, address indexed newOwner);\n\n    constructor () internal {\n        _owner = msg.sender;\n        emit OwnershipTransferred(address(0), _owner);\n    }\n\n    /**\n     * @dev Returns the address of the current owner.\n     */\n    function owner() public view returns (address payable) {\n        return _owner;\n    }\n\n    /**\n     * @dev Throws if called by any account other than the owner.\n     */\n    modifier onlyOwner() {\n        require(isOwner(), \"Ownable: caller is not the owner\");\n        _;\n    }\n\n    /**\n     * @dev Returns true if the caller is the current owner.\n     */\n    function isOwner() public view returns (bool) {\n        return msg.sender == _owner;\n    }\n\n    function transferOwnership(address payable newOwner) public onlyOwner {\n        _transferOwnership(newOwner);\n    }\n\n    function _transferOwnership(address payable newOwner) internal {\n        require(newOwner != address(0), \"Ownable: new owner is the zero address\");\n        emit OwnershipTransferred(_owner, newOwner);\n        _owner = newOwner;\n    }\n}\n//Erc20 Interface to negotatiate with open market in a standard giving more value and tradablilty \ninterface IERC20 {\n    function totalSupply() external view returns (uint256);\n    function balanceOf(address account) external view returns (uint256);\n    function transfer(address recipient, uint256 amount) external returns (bool);\n    function allowance(address owner, address spender) external view returns (uint256);\n    function approve(address spender, uint256 amount) external returns (bool);\n    function transferFrom(address sender, address recipient, uint256 amount) external returns (bool);\n    event Transfer(address indexed from, address indexed to, uint256 value);\n    event Approval(address indexed owner, address indexed spender, uint256 value);\n}\n\n// ERC20 Contract and directions of flow between ethereum, token and User.\ncontract ERC20 is IERC20 {\n    using SafeMath for uint256;\n    mapping (address => uint256) private _balances;\n    mapping (address => mapping (address => uint256)) private _allowances;\n    uint256 private _totalSupply;\n    uint256 private constant MAXCAP = 4000000 * (10 ** uint256(18));\n\n    function totalSupply() public view returns (uint256) {\n        return _totalSupply;\n    }\n\n    function balanceOf(address account) public view returns (uint256) {\n        return _balances[account];\n    }\n\n    function transfer(address recipient, uint256 amount) public returns (bool) {\n        _transfer(msg.sender, recipient, amount);\n        return true;\n    }\n\n    function allowance(address owner, address spender) public view returns (uint256) {\n        return _allowances[owner][spender];\n    }\n\n    function approve(address spender, uint256 value) public returns (bool) {\n        _approve(msg.sender, spender, value);\n        return true;\n    }\n\n    function transferFrom(address sender, address recipient, uint256 amount) public returns (bool) {\n        _transfer(sender, recipient, amount);\n        _approve(sender, msg.sender, _allowances[sender][msg.sender].sub(amount));\n        return true;\n    }\n\n    function increaseAllowance(address spender, uint256 addedValue) public returns (bool) {\n        _approve(msg.sender, spender, _allowances[msg.sender][spender].add(addedValue));\n        return true;\n    }\n\n    function decreaseAllowance(address spender, uint256 subtractedValue) public returns (bool) {\n        _approve(msg.sender, spender, _allowances[msg.sender][spender].sub(subtractedValue));\n        return true;\n    }\n\n    function _transfer(address sender, address recipient, uint256 amount) internal {\n        require(sender != address(0), \"ERC20: transfer from the zero address\");\n        require(recipient != address(0), \"ERC20: transfer to the zero address\");\n\n        _balances[sender] = _balances[sender].sub(amount);\n        _balances[recipient] = _balances[recipient].add(amount);\n        emit Transfer(sender, recipient, amount);\n    }\n\n    function _mint(address account, uint256 amount) internal {\n        require(account != address(0), \"ERC20: mint to the zero address\");\n        require(amount + totalSupply() <= MAXCAP, \"Max Cap: request for minting more than possible value\");\n        \n        _totalSupply = _totalSupply.add(amount);\n        _balances[account] = _balances[account].add(amount);\n        emit Transfer(address(0), account, amount);\n    }\n\n    function _approve(address owner, address spender, uint256 value) internal {\n        require(owner != address(0), \"ERC20: approve from the zero address\");\n        require(spender != address(0), \"ERC20: approve to the zero address\");\n\n        _allowances[owner][spender] = value;\n        emit Approval(owner, spender, value);\n    }\n\n}\n\n//Token Details with name, symbol and Decimals\ncontract ERC20Detailed is IERC20 {\n    string private _name;\n    string private _symbol;\n    uint8 private _decimals;\n\n    constructor (string memory name, string memory symbol, uint8 decimals) public {\n        _name = name;\n        _symbol = symbol;\n        _decimals = decimals;\n    }\n\n    function name() public view returns (string memory) {\n        return _name;\n    }\n\n    function symbol() public view returns (string memory) {\n        return _symbol;\n    }\n\n    function decimals() public view returns (uint8) {\n        return _decimals;\n    }\n}\n\n//Roles help store addresses and give them functions.\nlibrary Roles {\n    struct Role {\n        mapping (address => bool) bearer;\n    }\n\n    function add(Role storage role, address account) internal {\n        require(!has(role, account), \"Roles: account already has role\");\n        role.bearer[account] = true;\n    }\n\n    function remove(Role storage role, address account) internal {\n        require(has(role, account), \"Roles: account does not have role\");\n        role.bearer[account] = false;\n    }\n\n    function has(Role storage role, address account) internal view returns (bool) {\n        require(account != address(0), \"Roles: account is the zero address\");\n        return role.bearer[account];\n    }\n}\n//The Pauser Role helps Pause the Contract.\ncontract PauserRole {\n    using Roles for Roles.Role;\n\n    event PauserAdded(address indexed account);\n    event PauserRemoved(address indexed account);\n\n    Roles.Role private _pausers;\n\n    constructor () internal {\n        _addPauser(msg.sender);\n    }\n\n    modifier onlyPauser() {\n        require(isPauser(msg.sender), \"PauserRole: caller does not have the Pauser role\");\n        _;\n    }\n\n    function isPauser(address account) public view returns (bool) {\n        return _pausers.has(account);\n    }\n\n    function addPauser(address account) public onlyPauser {\n        _addPauser(account);\n    }\n\n    function _addPauser(address account) internal {\n        _pausers.add(account);\n        emit PauserAdded(account);\n    }\n\n    function _removePauser(address account) internal {\n        _pausers.remove(account);\n        emit PauserRemoved(account);\n    }\n}\n\ncontract Pausable is PauserRole {\n    event Paused(address account);\n    event Unpaused(address account);\n    bool private _paused;\n\n    constructor () internal {\n        _paused = false;\n    }\n\n    function paused() public view returns (bool) {\n        return _paused;\n    }\n\n    modifier whenNotPaused() {\n        require(!_paused, \"Pausable: paused\");\n        _;\n    }\n\n    modifier whenPaused() {\n        require(_paused, \"Pausable: not paused\");\n        _;\n    }\n\n    function pause() public onlyPauser whenNotPaused {\n        _paused = true;\n        emit Paused(msg.sender);\n    }\n\n    function unpause() public onlyPauser whenPaused {\n        _paused = false;\n        emit Unpaused(msg.sender);\n    }\n}\ncontract MinterRole {\n    using Roles for Roles.Role;\n\n    event MinterAdded(address indexed account);\n    event MinterRemoved(address indexed account);\n\n    Roles.Role private _minters;\n\n    constructor () internal {\n        _addMinter(msg.sender);\n    }\n\n    modifier onlyMinter() {\n        require(isMinter(msg.sender), \"MinterRole: caller does not have the Minter role\");\n        _;\n    }\n\n    function isMinter(address account) public view returns (bool) {\n        return _minters.has(account);\n    }\n\n    function addMinter(address account) public onlyMinter {\n        _addMinter(account);\n    }\n\n    function _addMinter(address account) internal {\n        _minters.add(account);\n        emit MinterAdded(account);\n    }\n\n    function _removeMinter(address account) internal {\n        _minters.remove(account);\n        emit MinterRemoved(account);\n    }\n}\ncontract TheraSeeding is ERC20, MinterRole {\n    function mint(address account, uint256 amount) public onlyMinter returns (bool) {\n        _mint(account, amount);\n        return true;\n    }\n}\nlibrary Address {\n    function isContract(address account) internal view returns (bool) {\n        uint256 size;\n        // solhint-disable-next-line no-inline-assembly\n        assembly { size := extcodesize(account) }\n        return size > 0;\n    }\n}\nlibrary SafeERC20 {\n    using SafeMath for uint256;\n    using Address for address;\n\n    function safeTransfer(IERC20 token, address to, uint256 value) internal {\n        callOptionalReturn(token, abi.encodeWithSelector(token.transfer.selector, to, value));\n    }\n\n    function safeTransferFrom(IERC20 token, address from, address to, uint256 value) internal {\n        callOptionalReturn(token, abi.encodeWithSelector(token.transferFrom.selector, from, to, value));\n    }\n\n    function safeApprove(IERC20 token, address spender, uint256 value) internal {\n        require((value == 0) || (token.allowance(address(this), spender) == 0),\n            \"SafeERC20: approve from non-zero to non-zero allowance\"\n        );\n        callOptionalReturn(token, abi.encodeWithSelector(token.approve.selector, spender, value));\n    }\n\n    function safeIncreaseAllowance(IERC20 token, address spender, uint256 value) internal {\n        uint256 newAllowance = token.allowance(address(this), spender).add(value);\n        callOptionalReturn(token, abi.encodeWithSelector(token.approve.selector, spender, newAllowance));\n    }\n\n    function safeDecreaseAllowance(IERC20 token, address spender, uint256 value) internal {\n        uint256 newAllowance = token.allowance(address(this), spender).sub(value);\n        callOptionalReturn(token, abi.encodeWithSelector(token.approve.selector, spender, newAllowance));\n    }\n\n    function callOptionalReturn(IERC20 token, bytes memory data) private {\n        require(address(token).isContract(), \"SafeERC20: call to non-contract\");\n\n        // solhint-disable-next-line avoid-low-level-calls\n        (bool success, bytes memory returndata) = address(token).call(data);\n        require(success, \"SafeERC20: low-level call failed\");\n\n        if (returndata.length > 0) { // Return data is optional\n            // solhint-disable-next-line max-line-length\n            require(abi.decode(returndata, (bool)), \"SafeERC20: ERC20 operation did not succeed\");\n        }\n    }\n}\ncontract ReentrancyGuard {\n    uint256 private _guardCounter;\n\n    constructor () internal {\n        _guardCounter = 1;\n    }\n\n    modifier nonReentrant() {\n        _guardCounter += 1;\n        uint256 localCounter = _guardCounter;\n        _;\n        require(localCounter == _guardCounter, \"ReentrancyGuard: reentrant call\");\n    }\n}\n\n//Crowdsale for the Trees.\ncontract Crowdsale is ReentrancyGuard, Pausable {\n    using SafeMath for uint256;\n    using SafeERC20 for IERC20;\n    IERC20 private _token;\n    address payable private _wallet;\n    uint256 private _rate;\n    uint256 private _weiRaised;\n\n    event TokensPurchased(address indexed purchaser, address indexed beneficiary, uint256 value, uint256 amount);\n    constructor (uint256 rate, address payable wallet, IERC20 token) public {\n        require(rate > 0, \"Crowdsale: rate is 0\");\n        require(wallet != address(0), \"Crowdsale: wallet is the zero address\");\n        require(address(token) != address(0), \"Crowdsale: token is the zero address\");\n\n        _rate = rate;\n        _wallet = wallet;\n        _token = token;\n    }\n\n    function () external payable {\n        buyTokens(msg.sender);\n    }\n\n    function token() public view returns (IERC20) {\n        return _token;\n    }\n\n    function wallet() public view returns (address payable) {\n        return _wallet;\n    }\n\n    function rate() public view returns (uint256) {\n        return _rate;\n    }\n\n    function weiRaised() public view returns (uint256) {\n        return _weiRaised;\n    }\n\n    function buyTokens(address beneficiary) public nonReentrant whenNotPaused payable {\n        require(beneficiary != address(0), \"Crowdsale: beneficiary is the zero address\");\n\n        uint256 weiAmount = msg.value;\n        _preValidatePurchase(beneficiary, weiAmount);\n\n        // calculate token amount to be created\n        uint256 tokens = _getTokenAmount(weiAmount);\n        tokens = tokens.mul(10 ** uint256(18));\n        // update state\n        _weiRaised = _weiRaised.add(weiAmount);\n        \n        _processPurchase(beneficiary, tokens);\n        emit TokensPurchased(msg.sender, beneficiary, weiAmount, tokens);\n\n        _updatePurchasingState(beneficiary, weiAmount);\n\n        _forwardFunds();\n        _postValidatePurchase(beneficiary, weiAmount);\n    }\n\n    function _preValidatePurchase(address beneficiary, uint256 weiAmount) internal view {\n        require(beneficiary != address(0), \"Crowdsale: beneficiary is the zero address\");\n        require(weiAmount != 0, \"Crowdsale: weiAmount is 0\");\n    }\n\n    function _postValidatePurchase(address beneficiary, uint256 weiAmount) internal view {\n        // solhint-disable-previous-line no-empty-blocks\n    }\n\n    function _deliverTokens(address beneficiary, uint256 tokenAmount) internal {\n        _token.safeTransfer(beneficiary, tokenAmount);\n    }\n\n    function _processPurchase(address beneficiary, uint256 tokenAmount) internal {\n        _deliverTokens(beneficiary, tokenAmount);\n    }\n\n    function _updatePurchasingState(address beneficiary, uint256 weiAmount) internal {\n        // solhint-disable-previous-line no-empty-blocks\n    }\n\n    function _getTokenAmount(uint256 weiAmount) internal view returns (uint256) {\n        return weiAmount.div(_rate);\n    }\n\n    function _forwardFunds() internal {\n        _wallet.transfer(msg.value);\n    }\n}\ncontract TheraFounding is Crowdsale {\n    function _deliverTokens(address beneficiary, uint256 tokenAmount) internal {\n        // Potentially dangerous assumption about the type of the token.\n        require(\n            TheraSeeding(address(token())).mint(beneficiary, tokenAmount),\n                \"MintedCrowdsale: minting failed\"\n        );\n    }\n}\n\n//Token Contract stabilized with Details, Minting qualitys and ownability.\ncontract Thera is ERC20, ERC20Detailed,TheraSeeding, Ownable, Pausable  {\n    uint8 internal constant DECIMALS = 18;\n\n    function() external payable {\n    }\n    \n    function getBalance() public view returns(uint256) {\n        return address(this).balance;\n    }\n    \n    function withdrawEther() external onlyOwner {\n        owner().transfer(getBalance());\n    }\n    \n    constructor ()  public\n     ERC20Detailed(\"Thera\", \"Thera\", DECIMALS)  {\n    }\n}\n//Minter Minting Contract seeding Theras for the purpose of developing Drone technology capable of automated reforestations.\n    contract TheraSeed is TheraFounding {\n        uint256 internal constant RATE = 39060000000000000;\n        \n        constructor(address payable Wallet, address payable Token) public Crowdsale(RATE, Wallet, TheraSeeding(Token)) {\n        }\n    }\n    //Minter Minting Contract seeding Theras for the purpose of developing blockchain like market selling Amazonian products.\n    contract TheraMarket is TheraFounding {\n        uint256 internal constant RATE = 39060000000000000;\n        \n        constructor(address payable Wallet, address payable Token) public Crowdsale(RATE, Wallet, TheraSeeding(Token)) {\n        }\n    }\n    //Minter Minting Contract seeding Theras for the purpose of developing Impactful Mega infrastructures in contact with nature in a sustainable way.\n    contract TheraLaw is TheraFounding {\n        uint256 internal constant RATE = 39060000000000000;\n        \n        constructor(address payable Wallet, address payable Token) public Crowdsale(RATE, Wallet, TheraSeeding(Token)) {\n        }\n    }\n    //Minter Minting Contract seeding Theras for the purpose of developing Software and program like dapps to enhance all TheraFoundings.\n    contract TheraDev is TheraFounding {\n        uint256 internal constant RATE = 39060000000000000;\n        \n        constructor(address payable Wallet, address payable Token) public Crowdsale(RATE, Wallet, TheraSeeding(Token)) {\n        }\n    }\n    //Minter Minting Contract seeding Theras for the purpose of developing Disruptive technology and uniting multi-patent technologies for genesis like creations.\n    contract TheraTech is TheraFounding {\n        uint256 internal constant RATE = 39060000000000000;\n        \n        constructor(address payable Wallet, address payable Token) public Crowdsale(RATE, Wallet, TheraSeeding(Token)) {\n        }\n    }\n\n    //Minter Minting Contract seeding Theras for the purpose of developing Impactful Mega infrastructures in contact with nature in a sustainable way.\n    contract TheraConstruction is TheraFounding {\n        uint256 internal constant RATE = 39060000000000000;\n        \n        constructor(address payable Wallet, address payable Token) public Crowdsale(RATE, Wallet, TheraSeeding(Token)) {\n        }\n    }\n    //Minter Minting Contract seeding Theras for the purpose of developing Economical break through in the northern region of South America main basis of the the amazon Rainforest.\n    contract TheraEconomy is TheraFounding {\n        uint256 internal constant RATE = 39060000000000000;\n        \n        constructor(address payable Wallet, address payable Token) public Crowdsale(RATE, Wallet, TheraSeeding(Token)) {\n        }\n    }\n    //Minter Minting Contract seeding Theras for the purpose of developing art, music,events, festivals and entertainment like business to expand marketing and visiability.\n    contract TheraArt is TheraFounding {\n        uint256 internal constant RATE = 39060000000000000;\n        \n        constructor(address payable Wallet, address payable Token) public Crowdsale(RATE, Wallet, TheraSeeding(Token)) {\n        }\n    }\n\n    //Minter Minting Contract seeding Theras for the purpose of developing 0 point renewable Energy in the Amazon.\n    contract TheraEnergy is TheraFounding {\n        uint256 internal constant RATE = 39060000000000000;\n        \n        constructor(address payable Wallet, address payable Token) public Crowdsale(RATE, Wallet, TheraSeeding(Token)) {\n        }\n    }\n    //Minter Minting Contract seeding Theras for the purpose of developing better connection among humanitarian crisis, ONGs and Diplomatic Affairs.\n    contract TheraGov is TheraFounding {\n        uint256 internal constant RATE = 39060000000000000;\n        \n        constructor(address payable Wallet, address payable Token) public Crowdsale(RATE, Wallet, TheraSeeding(Token)) {\n        }\n    }\n    //Minter Minting Contract seeding Theras for the purpose of developing Medicine and BioTech To cure the world from diseases with the rich Natural resources from the Amazon\n    contract TheraBioTech is TheraFounding {\n        uint256 internal constant RATE = 39060000000000000;\n        \n        constructor(address payable Wallet, address payable Token) public Crowdsale(RATE, Wallet, TheraSeeding(Token)) {\n        }\n    }\n    //Minter Minting Contract seeding Theras for the purpose of developing space technology in the Amazon Equatoria Line with universal launches in perspective and fuel saving\n    contract TheraSpace is TheraFounding {\n        uint256 internal constant RATE = 39060000000000000;\n        \n        constructor(address payable Wallet, address payable Token) public Crowdsale(RATE, Wallet, TheraSeeding(Token)) {\n        }\n    }\n    //Minter Minting Contract seeding Theras for the purpose of developing Unique Niobium like studies to protect earths resources through use of metal mixing and saving.\n    contract TheraMining is TheraFounding {\n        uint256 internal constant RATE = 39060000000000000;\n        \n        constructor(address payable Wallet, address payable Token) public Crowdsale(RATE, Wallet, TheraSeeding(Token)) {\n        }\n    }",
  "sourcePath": "/src/Thera/contracts/Thera.sol",
  "compiler": {
    "name": "solc",
    "version": "0.5.16+commit.9c3226ce.Emscripten.clang"
  },
  "schemaVersion": "3.2.3",
  "updatedAt": "2020-09-21T15:19:37.642Z",
  "networkType": "ethereum",
  "devdoc": {
    "methods": {}
  },
  "userdoc": {
    "methods": {}
  }
}